:020000040800F2
:10000000C006002089010008C70F0008D70E0008AD
:10001000C50F00088F02000813110008000000003F
:10002000000000000000000000000000CB0F0008EE
:100030009102000800000000C90F0008CD0F000861
:10004000A3010008A3010008A3010008A301000800
:10005000A3010008A3010008A3010008A3010008F0
:10006000A3010008A3010008A3010008A3010008E0
:10007000A3010008A3010008A3010008A3010008D0
:10008000A3010008A3010008A3010008A3010008C0
:10009000A3010008A3010008A3010008A3010008B0
:1000A000A3010008A3010008A3010008A3010008A0
:1000B000A301000831100008A3010008A3010008F3
:1000C000A3010008A3010008A3010008A301000880
:1000D000A3010008A3010008A3010008A301000870
:1000E000A3010008A3010008A301000800F002F822
:1000F00000F03AF80AA090E8000C82448344AAF188
:100100000107DA4501D100F02FF8AFF2090EBAE885
:100110000F0013F0010F18BFFB1A43F0010318473B
:100120009C100000BC100000103A24BF78C878C1B1
:10013000FAD8520724BF30C830C144BF04680C60ED
:10014000704700000023002400250026103A28BF35
:1001500078C1FBD8520728BF30C148BF0B60704739
:100160001FB51FBD10B510BD00F058F81146FFF7C0
:10017000F7FF00F0DFFF00F076F803B4FFF7F2FFBF
:1001800003BC00F07DF8000009488047094800479B
:10019000FEE7FEE7FEE7FEE7FEE7FEE7FEE7FEE737
:1001A000FEE7FEE704480549054A064B7047000094
:1001B0002F100008ED000008C0000020C00600203D
:1001C000C0020020C00200204FF0000200B513461C
:1001D00094469646203922BFA0E80C50A0E80C5067
:1001E000B1F12001BFF4F7AF090728BFA0E80C5018
:1001F00048BF0CC05DF804EB890028BF40F8042B11
:1002000008BF704748BF20F8022B11F0804F18BF7D
:1002100000F8012B7047704770477047754600F033
:100220002BF8AE4605006946534620F00700854688
:1002300018B020B5FFF7B6FFBDE820404FF000062C
:100240004FF000074FF000084FF0000B21F00701BE
:10025000AC46ACE8C009ACE8C009ACE8C009ACE801
:10026000C0098D46704710B50446AFF300802046A4
:10027000BDE81040FFF781BF004870475C000020D8
:1002800001491820ABBEFEE7260002007047FEE7DA
:10029000704772B6FEE7000070B5044600F010F932
:1002A0000546601C02D004480078044400F008F9B8
:1002B000401BA042FAD370BD040000202DE9F84F86
:1002C000DFF8B891002409F1040A0AF1040B23466F
:1002D0000F270BF1040EC9E00125A5402A40AA42D0
:1002E0007DD1674ED1F804C0ACEB0608B44532D0DE
:1002F00014DCBCF1030F3AD009DCBCF1000F2AD0AA
:10030000BCF1010F1CD0BCF1020F31D11DE0BCF1DA
:10031000110F17D0BCF1120F2AD119E0B8F5881FC0
:1003200019D006DCB8F5803F15D0B8F5801F1FD175
:1003300011E0B8F5001F0ED0B8F5041F18D10AE07F
:10034000CB6815E0CB681B1D12E0CB6808330FE0CB
:10035000CB680C330CE08B682BB1012B4FF00803FA
:1003600003D0456104E0042302E0056100E00023BE
:10037000FF2A01D8064601E000F104064FEA840591
:1003800001D9A5F12005D6F8008007FA05FC28EA76
:100390000C0803FA05F548EA0508C6F800804D6820
:1003A000ED0062D5374DAE6946F00106AE61AD692C
:1003B00024F0030605F001050095334D06EB050C0E
:1003C000DCF80850A607360F07FA06F825EA0805F4
:1003D000DFF8B880404503D14FF0000817E044E053
:1003E000DFF8AC80404502D14FF001080FE0DFF8A4
:1003F000A480404502D14FF0020808E0DFF8988061
:10040000404502D14FF0030801E04FF0040808FA1C
:1004100006F848EA0508CCF808804D68D9F800606D
:10042000ED034D4601D5164300E096432E604D681E
:10043000DAF80060AD03554601D5164300E0964357
:100440002E604D68DBF80060ED025D4601D5164375
:1004500000E096432E604D68DEF80060AD02754600
:1004600001D5164300E096432E60641C0D682A46B1
:10047000E5407FF431AFBDE8F88F00000004014093
:10048000000011100010024000000140000801406F
:10049000000C014000100140001401408068084039
:1004A00000D001207047C26821EA02030A4043EAF3
:1004B0000241016170470AB1016170470904FBE71D
:1004C00001488068704700000400002002488168ED
:1004D000027811448160704704000020074810B57D
:1004E000016841F010010160032000F075F80F2051
:1004F00000F006F800F024F8002010BD00200240B3
:1005000070B50D4D04464FF47A712878B1FBF0F0C8
:100510000A490968B1FBF0F000F0CCFA48B9102C98
:1005200007D200222146501E00F036F800206C60F1
:1005300070BD012070BD00000400002010000020EC
:100540000C4808B5816941F001018161816901F0C0
:1005500001010091C16941F08051C161C06900F0A1
:10056000805000900448416821F0E06141F0007142
:10057000416008BD0010024000000140002809DB76
:1005800000F01F02012191404009800000F1E020AD
:10059000C0F8001170470000F0B40E4B1B680C4609
:1005A000C3F30223C3F10705042D00D90425191D47
:1005B000072901D2002300E0DB1E012606FA05F11F
:1005C000491E214099409E40761E16403143F0BCA2
:1005D00000F0A0BD0CED00E0064900F0070208683D
:1005E0004FF6FF03184040EA0220034A1043086018
:1005F000704700000CED00E00000FA052DE9F0471F
:100600000F46050061D0434E306800F00700B84245
:1006100009D2306820F0070038433060306800F0BD
:100620000700B84251D128683B4C810712D54007DA
:1006300003D5606840F4E06060602878000703D567
:10064000606840F4605060606068A96820F0F00065
:10065000084360602878C00728D06868012810D057
:100660002168022810D0890700292EDA616821F05C
:10067000030101436160FFF723FF804641F288399F
:100680000DE021688903EFE78901EDE7FFF718FF27
:10069000A0EB0801494502D90320BDE8F087606856
:1006A000696800F00C00B0EB810FEFD1306800F00A
:1006B0000700B8420BD9306820F00700384330609B
:1006C000306800F00700B84201D00120E5E7287843
:1006D000400705D56068E96820F4E0600843606081
:1006E0002878000706D56068296920F4605040EA40
:1006F000C100606000F018F86168084AC1F3031196
:10070000515CC8400649086006480068FFF7F8FEDB
:100710000020C2E70020024000100240AC11000897
:10072000100000200800002012A185B00FC98DE83C
:100730000F0014A0144A006804905168134801F097
:100740000C03042B10D0082B0ED1C1F38343C90333
:100750001DF803000AD5516804AAC1F34041515C59
:100760000A4A5043B0FBF1F005B0704708494843CE
:10077000FAE7000002030405060708090A0B0C0D3E
:100780000E0F1010010200000010024000127A004B
:1007900000093D002DE9F84F040070D02078C04DCD
:1007A000C00749D06868C0F38100012807D0686895
:1007B000C0F38100022809D16868C00306D5286803
:1007C000800339D560680028E7D035E06068B0F56F
:1007D000803F0BD010B1B0F5A02F11D0286820F4C5
:1007E00080302860286820F4802002E0286840F4E7
:1007F00080302860606890B1FFF762FE06460AE02C
:10080000286840F480202860F0E700BFFFF758FE1A
:10081000801B642873D828688003F7D50CE0FFF7A5
:100820004FFE064605E000BFFFF74AFE801B642826
:10083000F0D828688003F7D420789A4E80074FF0CC
:1008400001094FF0000839D5686810F00C0F07D087
:100850006868C0F38100022809D16868C00306D423
:100860002868800714D52069012808D110E0206984
:10087000B0B1C6F80090FFF723FE074605E00AE195
:10088000FFF71EFEC01B0228C4D828688007F7D5D2
:100890002868616920F0F80040EAC10028600DE096
:1008A000C6F80080FFF70CFE074604E0FFF708FEDD
:1008B000C01B022823D828688007F7D420780007B7
:1008C0002CD57948A169D9B1C0F80090FFF7F8FD9F
:1008D000074604E0FFF7F4FDC01B02280FD8686A42
:1008E0008007F7D571484FF4FA510068B0FBF1F07A
:1008F000009000BF0098411E0091FAD20EE080E007
:10090000C0F80080FFF7DCFD074604E0FFF7D8FDE4
:10091000C01B022875D8686A8007F7D42078400782
:1009200060D5E8690027C00008D4E86940F080502D
:10093000E861E869012700F0805000905C48016898
:10094000C90513D40168834641F480710160FFF743
:10095000B7FD824606E000BFFFF7B2FDA0EB0A003C
:1009600064284ED8DBF80000C005F5D5E068012802
:100970000AD008B1052813D0286A20F001002862A7
:10098000286A20F0040002E0286A40F00100286292
:10099000E06841F2883B98B1FFF792FD82460BE098
:1009A000286A40F004002862EEE700BFFFF788FDE8
:1009B000A0EB0A0159455AD8286A8007F6D50CE001
:1009C000FFF77EFD824605E0FFF77AFDA0EB0A0106
:1009D00059454CD8286A8007F6D41FB1E86920F041
:1009E0008050E861E06988B36968C1F38101022938
:1009F00044D00228C6F8608004D0FFF761FD0446A9
:100A000038E034E0FFF75CFD074604E0FFF758FDEF
:100A1000C01B02282BD828688001F7D4206AB0F5C3
:100A2000803F05D16868A16820F400300843686001
:100A3000D4E908010843696821F474110843686027
:100A4000C6F86090FFF73CFD044606E025E000BFD5
:100A5000FFF736FD001B022809D828688001F7D56A
:100A60001BE000BFFFF72CFD001B022802D903206A
:100A7000BDE8F88F28688001F4D40EE00128F7D093
:100A80006868226A00F48031914204D1616A00F4FE
:100A90007010884201D00120EAE70020E8E700005A
:100AA0000010024000004242800442421000002038
:100AB0000070004010B5401EB0F1807F01D30120CE
:100AC00010BD4FF0E02460610F21601700F022FBA1
:100AD0000020A06107202061002010BD70477047F2
:100AE00070B590F83C20012A26D0012480F83C40C3
:100AF000022280F83D2003685A689D6822F0700643
:100B00000A6832435A600D4B02689A4208D0B2F12B
:100B1000804F05D00A4B9A4202D00A4B9A4204D128
:100B2000496825F080031943916080F83D40002119
:100B300080F83C10084670BD022070BD002C0140BA
:100B4000000400400008004010B5040003D094F8F1
:100B50003D0010B107E0012010BD002084F83C00EA
:100B6000204600F01FF8022084F83D00211D206877
:100B700000F064FA012084F8460084F83E0084F80E
:100B80003F0084F8400084F8410084F8420084F873
:100B9000430084F8440084F8450084F83D000020B8
:100BA00010BD000008B500680B49884212D10B48FF
:100BB000C16941F00201C161C069002200F0020078
:100BC000009011461D20FFF7E7FCBDE808401D20FE
:100BD000FFF7D4BC08BD0000000400400010024034
:100BE00090F83D10012901D001207047022180F8C2
:100BF0003D100168CA6842F00102CA6000680B49F2
:100C0000884208D0B0F1804F05D00949884202D00F
:100C10000849884204D1816801F00701062903D000
:100C2000016841F00101016000207047002C014083
:100C3000000400400008004070B5044690F83C00F5
:100C4000012817D0012584F83C50022084F83D008B
:100C50002068826822F0770222F47F42826008686E
:100C6000502830D00DDC20284DD005DC98B310285A
:100C70003BD148E0022070BD302844D0402834D118
:100C800039E0602828D0702806D0B0F5805F2CD0DD
:100C9000B0F5005F29D10AE0CB68D1E901212068D5
:100CA00000F002FA2068816841F0770109E0CB6822
:100CB000D1E90121206800F0F7F92068816841F44A
:100CC0008041816011E0CA684968206800F0FEF93F
:100CD0005021206807E016E0CA684968206800F0E3
:100CE00006FA6021206800F0E9F984F83D50002000
:100CF00084F83C0070BDCA684968206800F0E6F9D5
:100D000040212068EFE7226801461046EBE7704774
:100D100070B50446006801694FF00005C9438907B2
:100D200015D4C168C943890711D4E91E01610120A6
:100D30002077206880698007204602D0FFF7E7FF10
:100D400004E000F098F8204600F096F82577206837
:100D50000169C943490717D4C168C943490713D476
:100D60006FF004010161022020772068806910F48F
:100D7000407F204602D0FFF7CAFF04E000F07BF876
:100D8000204600F079F8257720680169C9430907F2
:100D900016D4C168C943090712D46FF00801016174
:100DA000042020772068C0698007204602D0FFF722
:100DB000AEFF04E000F05FF8204600F05DF8257714
:100DC00020680169C943C90617D4C168C943C90667
:100DD00013D46FF010010161082020772068C069EA
:100DE00010F4407F204602D0FFF791FF04E000F0AE
:100DF00042F8204600F040F8257720680169C94391
:100E0000C90708D1C168C943C90704D1891E016156
:100E1000204600F033F820680169C943090609D467
:100E2000C168C943090605D46FF0800101612046FD
:100E3000FFF754FE20680169C943490609D4C16817
:100E4000C943490605D46FF040010161204600F016
:100E500041F820680169C94389060BD4C168C943B8
:100E6000890607D46FF0200101612046BDE870407B
:100E7000FFF735BE70BD70477047000070B5006861
:100E8000114988420FD1114C11480125217859B1DF
:100E9000002601290FD0022905D10121FFF7FEFA12
:100EA000012800D1267070BD0121FFF7F7FA002854
:100EB000F9D1257070BD0121FFF7F0FA0128F1D1B9
:100EC00002202070657070BD00040040000000200A
:100ED000000801407047FEE770B586B000241C484A
:100EE0000094019402940394816941F0100181619E
:100EF000816901F010010491816941F02001816153
:100F0000816901F020010491816941F0040181614E
:100F10008069104E00F004004FF400550490002248
:100F200029463046FFF7C7FA0220CDE90240009576
:100F30000125694601953046FFF7C0F9CDE9005417
:100F4000694605480294FFF7B9F906B070BD000084
:100F500000100240001001400008014010B586B0AA
:100F600000241648009401940294039404941249B6
:100F7000059401601249C0E901144721C0E9031436
:100F80008461FFF7E1FD08B1FFF783F94FF480506A
:100F9000009069460948FFF74FFE08B1FFF779F95D
:100FA000049404A905480594FFF79AFD002801D090
:100FB000FFF76FF906B010BD0004004014000020D8
:100FC0009F860100FEE7FEE770477047FFF77EBA95
:100FD00030B58FB028216846FFF7F6F814210AA82B
:100FE000FFF7F2F801210804CDE900100024029473
:100FF00002250491CDE907504FF4E01009906846AE
:10100000FFF7C8FB08B172B6FEE70F20CDE90A056D
:101010004FF48060CDE90C4002210AA80E94FFF73E
:10102000EDFA002801D072B6FEE70FB030BD704770
:101030000148FFF76DBE000014000020F0B5026803
:10104000164B174C174D4FF08047984205D0B842C9
:1010500003D0A04201D0A84203D122F070064A6812
:101060003243984205D0B84203D0A04201D0A842F2
:1010700003D122F44074CA6822434C6922F08002F2
:10108000224302608A68C2620A688262984201D181
:101090000969016301214161F0BD0000002C01409C
:1010A000000400400008004010B5846842EA0322B2
:1010B00024F47F440A432243826010BD826822F0F8
:1010C00070020A4342F007018160704710B5036A5D
:1010D000046A24F001040462846924F0F00444EA00
:1010E000021423F00A020A438461026210BD10B5A3
:1010F000036A23F0100303628369046A23F47043D4
:1011000043EA023224F0A00343EA01118261016242
:1011100010BDFEE70907090E002804DB00F1E020FE
:1011200080F80014704700F00F0000F1E02080F814
:10113000141D7047FFF7D2F9FFF74AFFFFF7CCFE07
:10114000FFF70CFF1648FFF74BFD164F164C4FF4F8
:1011500000564FF47A7800256078012803D1657035
:10116000A078401CA070A07828B1012809D00228DE
:101170000DD0A570F0E7002231463846FFF79BF905
:10118000EAE731463846FFF78EF9642004E031463D
:101190003846FFF788F94046FFF77EF8DCE70000A5
:1011A000140000200010014000000020000000009A
:1011B000000000000102030406070809DC11000812
:1011C000000000201400000028010008F0110008B1
:1011D00014000020AC0600004401000800000200DA
:1011E0000100000010000000000000000024F400D6
:04000005080000ED02
:00000001FF
